{
  "address": "0xc84B93793FAae2969EB291D06af81155E8F7F01d",
  "abi": [
    {
      "inputs": [
        {
          "internalType": "address",
          "name": "exampleExternalContractAddress",
          "type": "address"
        }
      ],
      "stateMutability": "nonpayable",
      "type": "constructor"
    },
    {
      "inputs": [],
      "name": "AddrZeroDetected",
      "type": "error"
    },
    {
      "inputs": [],
      "name": "CanNotExecute",
      "type": "error"
    },
    {
      "inputs": [],
      "name": "ExecutedAlready",
      "type": "error"
    },
    {
      "inputs": [],
      "name": "NoStakingYet",
      "type": "error"
    },
    {
      "inputs": [],
      "name": "StakeMustNotBeZero",
      "type": "error"
    },
    {
      "inputs": [],
      "name": "StakingDeadlineHasPasssed",
      "type": "error"
    },
    {
      "inputs": [],
      "name": "StakingEnded",
      "type": "error"
    },
    {
      "inputs": [],
      "name": "StakingOngoing",
      "type": "error"
    },
    {
      "inputs": [],
      "name": "ThresholdMet",
      "type": "error"
    },
    {
      "anonymous": false,
      "inputs": [
        {
          "indexed": false,
          "internalType": "uint256",
          "name": "",
          "type": "uint256"
        }
      ],
      "name": "Execute",
      "type": "event"
    },
    {
      "anonymous": false,
      "inputs": [
        {
          "indexed": false,
          "internalType": "address",
          "name": "",
          "type": "address"
        },
        {
          "indexed": false,
          "internalType": "uint256",
          "name": "",
          "type": "uint256"
        }
      ],
      "name": "Stake",
      "type": "event"
    },
    {
      "anonymous": false,
      "inputs": [
        {
          "indexed": false,
          "internalType": "address",
          "name": "",
          "type": "address"
        }
      ],
      "name": "StakeWithdrawn",
      "type": "event"
    },
    {
      "inputs": [
        {
          "internalType": "address",
          "name": "",
          "type": "address"
        }
      ],
      "name": "balances",
      "outputs": [
        {
          "internalType": "uint256",
          "name": "",
          "type": "uint256"
        }
      ],
      "stateMutability": "view",
      "type": "function"
    },
    {
      "inputs": [],
      "name": "deadline",
      "outputs": [
        {
          "internalType": "uint256",
          "name": "",
          "type": "uint256"
        }
      ],
      "stateMutability": "view",
      "type": "function"
    },
    {
      "inputs": [],
      "name": "exampleExternalContract",
      "outputs": [
        {
          "internalType": "contract ExampleExternalContract",
          "name": "",
          "type": "address"
        }
      ],
      "stateMutability": "view",
      "type": "function"
    },
    {
      "inputs": [],
      "name": "execute",
      "outputs": [],
      "stateMutability": "nonpayable",
      "type": "function"
    },
    {
      "inputs": [],
      "name": "stake",
      "outputs": [],
      "stateMutability": "payable",
      "type": "function"
    },
    {
      "inputs": [],
      "name": "threshold",
      "outputs": [
        {
          "internalType": "uint256",
          "name": "",
          "type": "uint256"
        }
      ],
      "stateMutability": "view",
      "type": "function"
    },
    {
      "inputs": [],
      "name": "timeLeft",
      "outputs": [
        {
          "internalType": "uint256",
          "name": "",
          "type": "uint256"
        }
      ],
      "stateMutability": "view",
      "type": "function"
    },
    {
      "inputs": [],
      "name": "withdraw",
      "outputs": [],
      "stateMutability": "nonpayable",
      "type": "function"
    },
    {
      "stateMutability": "payable",
      "type": "receive"
    }
  ],
  "transactionHash": "0x3183fcedc9c9626eba25a8febe0a4e180b8788a251170e12938feecc1b27c05c",
  "args": [
    "0x04F265A19cD5F718b82a2977f42682A8C065aAf6"
  ],
  "numDeployments": 1,
  "solcInputHash": "ab40961850e8099a8483288c8b809e31",
  "bytecode": "0x6080604052610011426203f480610092565b60015534801561002057600080fd5b506040516107ed3803806107ed83398101604081905261003f91610064565b600080546001600160a01b0319166001600160a01b03929092169190911790556100b6565b600060208284031215610075578081fd5b81516001600160a01b038116811461008b578182fd5b9392505050565b600082198211156100b157634e487b7160e01b81526011600452602481fd5b500190565b610728806100c56000396000f3fe60806040526004361061007f5760003560e01c80633ccfd60b1161004e5780633ccfd60b1461012957806342cde4e81461013e578063614619541461015a5780639f75f2271461016f57600080fd5b80631300a6d1146100be57806327e235e3146100e657806329dcb0cf146101135780633a4b66f1146100af57600080fd5b366100b957600054600160a01b900460ff16156100af576040516303ad753960e21b815260040160405180910390fd5b6100b76101a7565b005b600080fd5b3480156100ca57600080fd5b506100d3610293565b6040519081526020015b60405180910390f35b3480156100f257600080fd5b506100d361010136600461060e565b60026020526000908152604090205481565b34801561011f57600080fd5b506100d360015481565b34801561013557600080fd5b506100b76102b7565b34801561014a57600080fd5b506100d3670de0b6b3a764000081565b34801561016657600080fd5b506100b761046f565b34801561017b57600080fd5b5060005461018f906001600160a01b031681565b6040516001600160a01b0390911681526020016100dd565b336101c5576040516311b6958b60e21b815260040160405180910390fd5b600034116101e65760405163a3ed03ff60e01b815260040160405180910390fd5b600154421115610209576040516312776a0760e01b815260040160405180910390fd5b600054600160a01b900460ff1615610234576040516337000ecb60e21b815260040160405180910390fd5b33600090815260026020526040812080543492906102539084906106ad565b9091555050604080513381523460208201527febedb8b3c678666e7f36970bc8f57abf6d8fa2e828c0da91ea5b75bf68ed101a91015b60405180910390a1565b600060015442106102a45750600090565b426001546102b291906106c5565b905090565b60008054906101000a90046001600160a01b03166001600160a01b0316639d9a7fe96040518163ffffffff1660e01b815260040160206040518083038186803b15801561030357600080fd5b505afa158015610317573d6000803e3d6000fd5b505050506040513d601f19601f8201168201806040525081019061033b919061063c565b156103615760405162461bcd60e51b81526004016103589061065c565b60405180910390fd5b3361037f576040516311b6958b60e21b815260040160405180910390fd5b670de0b6b3a764000047106103a7576040516320b8f6d160e01b815260040160405180910390fd5b6001544210156103ca57604051631fe53f7b60e01b815260040160405180910390fd5b336000908152600260205260409020546103f757604051632404f2ad60e01b815260040160405180910390fd5b33600081815260026020526040808220805490839055905190929183156108fc02918491818181858888f19350505050158015610438573d6000803e3d6000fd5b506040513381527f4a7934670bd8304e7da22378be1368f7c4fef17c5aee81804beda8638fe428ec9060200160405180910390a150565b60008054906101000a90046001600160a01b03166001600160a01b0316639d9a7fe96040518163ffffffff1660e01b815260040160206040518083038186803b1580156104bb57600080fd5b505afa1580156104cf573d6000803e3d6000fd5b505050506040513d601f19601f820116820180604052508101906104f3919061063c565b156105105760405162461bcd60e51b81526004016103589061065c565b42600154111561053357604051636f9911ab60e11b815260040160405180910390fd5b600054600160a01b900460ff161561055e576040516303ad753960e21b815260040160405180910390fd5b670de0b6b3a7640000471061060c576000805460ff60a01b198116600160a01b1782556040805163522e117760e01b815290516001600160a01b039092169263522e1177924792600480820193929182900301818588803b1580156105c257600080fd5b505af11580156105d6573d6000803e3d6000fd5b50505050507fddb556f1d2c1ec821e910b019d3685b229db152a0ecd517ca7e24b8bd71392894760405161028991815260200190565b565b60006020828403121561061f578081fd5b81356001600160a01b0381168114610635578182fd5b9392505050565b60006020828403121561064d578081fd5b81518015158114610635578182fd5b60208082526031908201527f4f7065726174696f6e206e6f7420616c6c6f7765642c20636f6e747261637420604082015270185b1c9958591e4818dbdb5c1b195d1959607a1b606082015260800190565b600082198211156106c0576106c06106dc565b500190565b6000828210156106d7576106d76106dc565b500390565b634e487b7160e01b600052601160045260246000fdfea2646970667358221220e682c03f8bb47e2570d2200a71a559abe0979bd3d79cc75e520e3ddb63446b3e64736f6c63430008040033",
  "devdoc": {
    "kind": "dev",
    "methods": {},
    "version": 1
  },
  "userdoc": {
    "kind": "user",
    "methods": {},
    "version": 1
  },
  "storageLayout": {
    "storage": [
      {
        "astId": 19,
        "contract": "contracts/Staker.sol:Staker",
        "label": "exampleExternalContract",
        "offset": 0,
        "slot": "0",
        "type": "t_contract(ExampleExternalContract)12"
      },
      {
        "astId": 21,
        "contract": "contracts/Staker.sol:Staker",
        "label": "executed",
        "offset": 20,
        "slot": "0",
        "type": "t_bool"
      },
      {
        "astId": 23,
        "contract": "contracts/Staker.sol:Staker",
        "label": "openWithdraw",
        "offset": 21,
        "slot": "0",
        "type": "t_bool"
      },
      {
        "astId": 29,
        "contract": "contracts/Staker.sol:Staker",
        "label": "deadline",
        "offset": 0,
        "slot": "1",
        "type": "t_uint256"
      },
      {
        "astId": 36,
        "contract": "contracts/Staker.sol:Staker",
        "label": "balances",
        "offset": 0,
        "slot": "2",
        "type": "t_mapping(t_address,t_uint256)"
      }
    ],
    "types": {
      "t_address": {
        "encoding": "inplace",
        "label": "address",
        "numberOfBytes": "20"
      },
      "t_bool": {
        "encoding": "inplace",
        "label": "bool",
        "numberOfBytes": "1"
      },
      "t_contract(ExampleExternalContract)12": {
        "encoding": "inplace",
        "label": "contract ExampleExternalContract",
        "numberOfBytes": "20"
      },
      "t_mapping(t_address,t_uint256)": {
        "encoding": "mapping",
        "key": "t_address",
        "label": "mapping(address => uint256)",
        "numberOfBytes": "32",
        "value": "t_uint256"
      },
      "t_uint256": {
        "encoding": "inplace",
        "label": "uint256",
        "numberOfBytes": "32"
      }
    }
  }
}